{
  "contractName": "CryptoKittenNFT",
  "abi": [
    {
      "inputs": [
        {
          "internalType": "string",
          "name": "baseURI",
          "type": "string"
        }
      ],
      "stateMutability": "nonpayable",
      "type": "constructor"
    },
    {
      "anonymous": false,
      "inputs": [
        {
          "indexed": true,
          "internalType": "address",
          "name": "owner",
          "type": "address"
        },
        {
          "indexed": true,
          "internalType": "address",
          "name": "approved",
          "type": "address"
        },
        {
          "indexed": true,
          "internalType": "uint256",
          "name": "tokenId",
          "type": "uint256"
        }
      ],
      "name": "Approval",
      "type": "event"
    },
    {
      "anonymous": false,
      "inputs": [
        {
          "indexed": true,
          "internalType": "address",
          "name": "owner",
          "type": "address"
        },
        {
          "indexed": true,
          "internalType": "address",
          "name": "operator",
          "type": "address"
        },
        {
          "indexed": false,
          "internalType": "bool",
          "name": "approved",
          "type": "bool"
        }
      ],
      "name": "ApprovalForAll",
      "type": "event"
    },
    {
      "anonymous": false,
      "inputs": [
        {
          "indexed": true,
          "internalType": "uint256",
          "name": "id",
          "type": "uint256"
        }
      ],
      "name": "JoinFace",
      "type": "event"
    },
    {
      "anonymous": false,
      "inputs": [
        {
          "indexed": true,
          "internalType": "address",
          "name": "previousOwner",
          "type": "address"
        },
        {
          "indexed": true,
          "internalType": "address",
          "name": "newOwner",
          "type": "address"
        }
      ],
      "name": "OwnershipTransferred",
      "type": "event"
    },
    {
      "anonymous": false,
      "inputs": [
        {
          "indexed": true,
          "internalType": "address",
          "name": "from",
          "type": "address"
        },
        {
          "indexed": true,
          "internalType": "address",
          "name": "to",
          "type": "address"
        },
        {
          "indexed": true,
          "internalType": "uint256",
          "name": "tokenId",
          "type": "uint256"
        }
      ],
      "name": "Transfer",
      "type": "event"
    },
    {
      "inputs": [],
      "name": "MAX_BY_MINT",
      "outputs": [
        {
          "internalType": "uint256",
          "name": "",
          "type": "uint256"
        }
      ],
      "stateMutability": "view",
      "type": "function",
      "constant": true
    },
    {
      "inputs": [],
      "name": "MAX_ELEMENTS",
      "outputs": [
        {
          "internalType": "uint256",
          "name": "",
          "type": "uint256"
        }
      ],
      "stateMutability": "view",
      "type": "function",
      "constant": true
    },
    {
      "inputs": [],
      "name": "PRICE",
      "outputs": [
        {
          "internalType": "uint256",
          "name": "",
          "type": "uint256"
        }
      ],
      "stateMutability": "view",
      "type": "function",
      "constant": true
    },
    {
      "inputs": [
        {
          "internalType": "address",
          "name": "to",
          "type": "address"
        },
        {
          "internalType": "uint256",
          "name": "tokenId",
          "type": "uint256"
        }
      ],
      "name": "approve",
      "outputs": [],
      "stateMutability": "nonpayable",
      "type": "function"
    },
    {
      "inputs": [
        {
          "internalType": "address",
          "name": "owner",
          "type": "address"
        }
      ],
      "name": "balanceOf",
      "outputs": [
        {
          "internalType": "uint256",
          "name": "",
          "type": "uint256"
        }
      ],
      "stateMutability": "view",
      "type": "function",
      "constant": true
    },
    {
      "inputs": [],
      "name": "baseTokenURI",
      "outputs": [
        {
          "internalType": "string",
          "name": "",
          "type": "string"
        }
      ],
      "stateMutability": "view",
      "type": "function",
      "constant": true
    },
    {
      "inputs": [
        {
          "internalType": "uint256",
          "name": "tokenId",
          "type": "uint256"
        }
      ],
      "name": "burn",
      "outputs": [],
      "stateMutability": "nonpayable",
      "type": "function"
    },
    {
      "inputs": [],
      "name": "creatorAddress",
      "outputs": [
        {
          "internalType": "address",
          "name": "",
          "type": "address"
        }
      ],
      "stateMutability": "view",
      "type": "function",
      "constant": true
    },
    {
      "inputs": [
        {
          "internalType": "uint256",
          "name": "tokenId",
          "type": "uint256"
        }
      ],
      "name": "getApproved",
      "outputs": [
        {
          "internalType": "address",
          "name": "",
          "type": "address"
        }
      ],
      "stateMutability": "view",
      "type": "function",
      "constant": true
    },
    {
      "inputs": [
        {
          "internalType": "address",
          "name": "owner",
          "type": "address"
        },
        {
          "internalType": "address",
          "name": "operator",
          "type": "address"
        }
      ],
      "name": "isApprovedForAll",
      "outputs": [
        {
          "internalType": "bool",
          "name": "",
          "type": "bool"
        }
      ],
      "stateMutability": "view",
      "type": "function",
      "constant": true
    },
    {
      "inputs": [],
      "name": "name",
      "outputs": [
        {
          "internalType": "string",
          "name": "",
          "type": "string"
        }
      ],
      "stateMutability": "view",
      "type": "function",
      "constant": true
    },
    {
      "inputs": [],
      "name": "owner",
      "outputs": [
        {
          "internalType": "address",
          "name": "",
          "type": "address"
        }
      ],
      "stateMutability": "view",
      "type": "function",
      "constant": true
    },
    {
      "inputs": [
        {
          "internalType": "uint256",
          "name": "tokenId",
          "type": "uint256"
        }
      ],
      "name": "ownerOf",
      "outputs": [
        {
          "internalType": "address",
          "name": "",
          "type": "address"
        }
      ],
      "stateMutability": "view",
      "type": "function",
      "constant": true
    },
    {
      "inputs": [],
      "name": "renounceOwnership",
      "outputs": [],
      "stateMutability": "nonpayable",
      "type": "function"
    },
    {
      "inputs": [
        {
          "internalType": "address",
          "name": "from",
          "type": "address"
        },
        {
          "internalType": "address",
          "name": "to",
          "type": "address"
        },
        {
          "internalType": "uint256",
          "name": "tokenId",
          "type": "uint256"
        }
      ],
      "name": "safeTransferFrom",
      "outputs": [],
      "stateMutability": "nonpayable",
      "type": "function"
    },
    {
      "inputs": [
        {
          "internalType": "address",
          "name": "from",
          "type": "address"
        },
        {
          "internalType": "address",
          "name": "to",
          "type": "address"
        },
        {
          "internalType": "uint256",
          "name": "tokenId",
          "type": "uint256"
        },
        {
          "internalType": "bytes",
          "name": "_data",
          "type": "bytes"
        }
      ],
      "name": "safeTransferFrom",
      "outputs": [],
      "stateMutability": "nonpayable",
      "type": "function"
    },
    {
      "inputs": [
        {
          "internalType": "address",
          "name": "operator",
          "type": "address"
        },
        {
          "internalType": "bool",
          "name": "approved",
          "type": "bool"
        }
      ],
      "name": "setApprovalForAll",
      "outputs": [],
      "stateMutability": "nonpayable",
      "type": "function"
    },
    {
      "inputs": [],
      "name": "symbol",
      "outputs": [
        {
          "internalType": "string",
          "name": "",
          "type": "string"
        }
      ],
      "stateMutability": "view",
      "type": "function",
      "constant": true
    },
    {
      "inputs": [
        {
          "internalType": "uint256",
          "name": "index",
          "type": "uint256"
        }
      ],
      "name": "tokenByIndex",
      "outputs": [
        {
          "internalType": "uint256",
          "name": "",
          "type": "uint256"
        }
      ],
      "stateMutability": "view",
      "type": "function",
      "constant": true
    },
    {
      "inputs": [
        {
          "internalType": "address",
          "name": "owner",
          "type": "address"
        },
        {
          "internalType": "uint256",
          "name": "index",
          "type": "uint256"
        }
      ],
      "name": "tokenOfOwnerByIndex",
      "outputs": [
        {
          "internalType": "uint256",
          "name": "",
          "type": "uint256"
        }
      ],
      "stateMutability": "view",
      "type": "function",
      "constant": true
    },
    {
      "inputs": [
        {
          "internalType": "uint256",
          "name": "tokenId",
          "type": "uint256"
        }
      ],
      "name": "tokenURI",
      "outputs": [
        {
          "internalType": "string",
          "name": "",
          "type": "string"
        }
      ],
      "stateMutability": "view",
      "type": "function",
      "constant": true
    },
    {
      "inputs": [],
      "name": "totalSupply",
      "outputs": [
        {
          "internalType": "uint256",
          "name": "",
          "type": "uint256"
        }
      ],
      "stateMutability": "view",
      "type": "function",
      "constant": true
    },
    {
      "inputs": [
        {
          "internalType": "address",
          "name": "from",
          "type": "address"
        },
        {
          "internalType": "address",
          "name": "to",
          "type": "address"
        },
        {
          "internalType": "uint256",
          "name": "tokenId",
          "type": "uint256"
        }
      ],
      "name": "transferFrom",
      "outputs": [],
      "stateMutability": "nonpayable",
      "type": "function"
    },
    {
      "inputs": [
        {
          "internalType": "address",
          "name": "newOwner",
          "type": "address"
        }
      ],
      "name": "transferOwnership",
      "outputs": [],
      "stateMutability": "nonpayable",
      "type": "function"
    },
    {
      "inputs": [],
      "name": "pauseState",
      "outputs": [
        {
          "internalType": "bool",
          "name": "",
          "type": "bool"
        }
      ],
      "stateMutability": "view",
      "type": "function",
      "constant": true
    },
    {
      "inputs": [],
      "name": "totalMint",
      "outputs": [
        {
          "internalType": "uint256",
          "name": "",
          "type": "uint256"
        }
      ],
      "stateMutability": "view",
      "type": "function",
      "constant": true
    },
    {
      "inputs": [
        {
          "internalType": "address",
          "name": "_to",
          "type": "address"
        },
        {
          "internalType": "uint256",
          "name": "_count",
          "type": "uint256"
        }
      ],
      "name": "mint",
      "outputs": [],
      "stateMutability": "payable",
      "type": "function",
      "payable": true
    },
    {
      "inputs": [
        {
          "internalType": "uint256",
          "name": "_count",
          "type": "uint256"
        }
      ],
      "name": "price",
      "outputs": [
        {
          "internalType": "uint256",
          "name": "",
          "type": "uint256"
        }
      ],
      "stateMutability": "pure",
      "type": "function",
      "constant": true
    },
    {
      "inputs": [
        {
          "internalType": "string",
          "name": "baseURI",
          "type": "string"
        }
      ],
      "name": "setBaseURI",
      "outputs": [],
      "stateMutability": "nonpayable",
      "type": "function"
    },
    {
      "inputs": [
        {
          "internalType": "address",
          "name": "_owner",
          "type": "address"
        }
      ],
      "name": "walletOfOwner",
      "outputs": [
        {
          "internalType": "uint256[]",
          "name": "",
          "type": "uint256[]"
        }
      ],
      "stateMutability": "view",
      "type": "function",
      "constant": true
    },
    {
      "inputs": [
        {
          "internalType": "bool",
          "name": "val",
          "type": "bool"
        }
      ],
      "name": "pause",
      "outputs": [],
      "stateMutability": "nonpayable",
      "type": "function"
    },
    {
      "inputs": [],
      "name": "withdrawAll",
      "outputs": [],
      "stateMutability": "payable",
      "type": "function",
      "payable": true
    },
    {
      "inputs": [
        {
          "internalType": "bytes4",
          "name": "interfaceId",
          "type": "bytes4"
        }
      ],
      "name": "supportsInterface",
      "outputs": [
        {
          "internalType": "bool",
          "name": "",
          "type": "bool"
        }
      ],
      "stateMutability": "view",
      "type": "function",
      "constant": true
    },
    {
      "inputs": [
        {
          "internalType": "uint256",
          "name": "_count",
          "type": "uint256"
        }
      ],
      "name": "reserve",
      "outputs": [],
      "stateMutability": "nonpayable",
      "type": "function"
    }
  ],
  "bytecode": "0x60806040523480156200001157600080fd5b506040516200295f3803806200295f8339810160408190526200003491620002af565b604080518082018252600f81526e10dc9e5c1d1bd2da5d1d195b939195608a1b60208083019182528351808501909452600384526221a5a760e91b9084015281519192916200008691600091620001f3565b5080516200009c906001906020840190620001f3565b505050620000b9620000b3620000d760201b60201c565b620000db565b620000c4816200012d565b620000d0600062000195565b50620003c8565b3390565b600a80546001600160a01b038381166001600160a01b0319831681179093556040519116919082907f8be0079c531659141344cd1fd0a4f28419497f9722a3daafe3b4186f6b6457e090600090a35050565b600a546001600160a01b031633146200017c5760405162461bcd60e51b815260206004820181905260248201526000805160206200293f83398151915260448201526064015b60405180910390fd5b80516200019190600c906020840190620001f3565b5050565b600a546001600160a01b03163314620001e05760405162461bcd60e51b815260206004820181905260248201526000805160206200293f833981519152604482015260640162000173565b600d805460ff1916911515919091179055565b82805462000201906200038b565b90600052602060002090601f01602090048101928262000225576000855562000270565b82601f106200024057805160ff191683800117855562000270565b8280016001018555821562000270579182015b828111156200027057825182559160200191906001019062000253565b506200027e92915062000282565b5090565b5b808211156200027e576000815560010162000283565b634e487b7160e01b600052604160045260246000fd5b60006020808385031215620002c357600080fd5b82516001600160401b0380821115620002db57600080fd5b818501915085601f830112620002f057600080fd5b81518181111562000305576200030562000299565b604051601f8201601f19908116603f0116810190838211818310171562000330576200033062000299565b8160405282815288868487010111156200034957600080fd5b600093505b828410156200036d57848401860151818501870152928501926200034e565b828411156200037f5760008684830101525b98975050505050505050565b600181811c90821680620003a057607f821691505b60208210811415620003c257634e487b7160e01b600052602260045260246000fd5b50919050565b61256780620003d86000396000f3fe6080604052600436106101f95760003560e01c80636352211e1161010d57806395d89b41116100a0578063d547cfb71161006f578063d547cfb714610579578063d71183511461058e578063e927fc5c146105a6578063e985e9c5146105ce578063f2fde38b1461061757600080fd5b806395d89b4114610504578063a22cb46514610519578063b88d4fde14610539578063c87b56dd1461055957600080fd5b8063853828b6116100dc578063853828b6146104ae5780638ad5de28146104b65780638d859f3e146104cb5780638da5cb5b146104e657600080fd5b80636352211e1461043957806370a0823114610459578063715018a614610479578063819b25ba1461048e57600080fd5b80632f745c591161019057806342966c681161015f57806342966c6814610397578063438b6300146103b75780634f6ccce7146103e457806355f804b31461040457806359a7715a1461042457600080fd5b80632f745c591461032e5780633502a7161461034e57806340c10f191461036457806342842e0e1461037757600080fd5b8063095ea7b3116101cc578063095ea7b3146102af57806318160ddd146102cf57806323b872dd146102ee57806326a49e371461030e57600080fd5b806301ffc9a7146101fe57806302329a291461023357806306fdde0314610255578063081812fc14610277575b600080fd5b34801561020a57600080fd5b5061021e610219366004611f41565b610637565b60405190151581526020015b60405180910390f35b34801561023f57600080fd5b5061025361024e366004611f73565b610648565b005b34801561026157600080fd5b5061026a61068e565b60405161022a9190611fe6565b34801561028357600080fd5b50610297610292366004611ff9565b610720565b6040516001600160a01b03909116815260200161022a565b3480156102bb57600080fd5b506102536102ca366004612029565b6107b5565b3480156102db57600080fd5b506008545b60405190815260200161022a565b3480156102fa57600080fd5b50610253610309366004612053565b6108cb565b34801561031a57600080fd5b506102e0610329366004611ff9565b6108fd565b34801561033a57600080fd5b506102e0610349366004612029565b610910565b34801561035a57600080fd5b506102e061271081565b610253610372366004612029565b6109a6565b34801561038357600080fd5b50610253610392366004612053565b610b8c565b3480156103a357600080fd5b506102536103b2366004611ff9565b610ba7565b3480156103c357600080fd5b506103d76103d236600461208f565b610c21565b60405161022a91906120aa565b3480156103f057600080fd5b506102e06103ff366004611ff9565b610cc3565b34801561041057600080fd5b5061025361041f36600461217a565b610d56565b34801561043057600080fd5b506102e0610d97565b34801561044557600080fd5b50610297610454366004611ff9565b610da6565b34801561046557600080fd5b506102e061047436600461208f565b610e1d565b34801561048557600080fd5b50610253610ea4565b34801561049a57600080fd5b506102536104a9366004611ff9565b610eda565b610253610f7b565b3480156104c257600080fd5b506102e0601481565b3480156104d757600080fd5b506102e0662714711487800081565b3480156104f257600080fd5b50600a546001600160a01b0316610297565b34801561051057600080fd5b5061026a610fce565b34801561052557600080fd5b506102536105343660046121c3565b610fdd565b34801561054557600080fd5b506102536105543660046121f6565b6110a2565b34801561056557600080fd5b5061026a610574366004611ff9565b6110d4565b34801561058557600080fd5b5061026a6111af565b34801561059a57600080fd5b50600d5460ff1661021e565b3480156105b257600080fd5b5061029773c7da82d146aa66ce6df39142e9fb963df2acc39281565b3480156105da57600080fd5b5061021e6105e9366004612272565b6001600160a01b03918216600090815260056020908152604080832093909416825291909152205460ff1690565b34801561062357600080fd5b5061025361063236600461208f565b61123d565b6000610642826112d5565b92915050565b600a546001600160a01b0316331461067b5760405162461bcd60e51b81526004016106729061229c565b60405180910390fd5b600d805460ff1916911515919091179055565b60606000805461069d906122d1565b80601f01602080910402602001604051908101604052809291908181526020018280546106c9906122d1565b80156107165780601f106106eb57610100808354040283529160200191610716565b820191906000526020600020905b8154815290600101906020018083116106f957829003601f168201915b5050505050905090565b6000818152600260205260408120546001600160a01b03166107995760405162461bcd60e51b815260206004820152602c60248201527f4552433732313a20617070726f76656420717565727920666f72206e6f6e657860448201526b34b9ba32b73a103a37b5b2b760a11b6064820152608401610672565b506000908152600460205260409020546001600160a01b031690565b60006107c082610da6565b9050806001600160a01b0316836001600160a01b0316141561082e5760405162461bcd60e51b815260206004820152602160248201527f4552433732313a20617070726f76616c20746f2063757272656e74206f776e656044820152603960f91b6064820152608401610672565b336001600160a01b038216148061084a575061084a81336105e9565b6108bc5760405162461bcd60e51b815260206004820152603860248201527f4552433732313a20617070726f76652063616c6c6572206973206e6f74206f7760448201527f6e6572206e6f7220617070726f76656420666f7220616c6c00000000000000006064820152608401610672565b6108c683836112fa565b505050565b6108d6335b82611368565b6108f25760405162461bcd60e51b81526004016106729061230c565b6108c683838361145f565b600061064266271471148780008361160a565b600061091b83610e1d565b821061097d5760405162461bcd60e51b815260206004820152602b60248201527f455243373231456e756d657261626c653a206f776e657220696e646578206f7560448201526a74206f6620626f756e647360a81b6064820152608401610672565b506001600160a01b03919091166000908152600660209081526040808320938352929052205490565b6127106109b1611616565b11156109ea5760405162461bcd60e51b815260206004820152600860248201526714d85b1948195b9960c21b6044820152606401610672565b600a546001600160a01b03163314610a4257600d5460ff1615610a425760405162461bcd60e51b815260206004820152601060248201526f14185d5cd8589b194e881c185d5cd95960821b6044820152606401610672565b6000610a4c611616565b9050612710610a5b8383612373565b1115610a955760405162461bcd60e51b815260206004820152600960248201526813585e081b1a5b5a5d60ba1b6044820152606401610672565b612710811115610ad25760405162461bcd60e51b815260206004820152600860248201526714d85b1948195b9960c21b6044820152606401610672565b6014821115610b145760405162461bcd60e51b815260206004820152600e60248201526d22bc31b2b2b23990373ab6b132b960911b6044820152606401610672565b610b1d826108fd565b341015610b605760405162461bcd60e51b815260206004820152601160248201527056616c75652062656c6f7720707269636560781b6044820152606401610672565b60005b82811015610b8657610b7484611621565b80610b7e8161238b565b915050610b63565b50505050565b6108c6838383604051806020016040528060008152506110a2565b610bb0336108d0565b610c155760405162461bcd60e51b815260206004820152603060248201527f4552433732314275726e61626c653a2063616c6c6572206973206e6f74206f7760448201526f1b995c881b9bdc88185c1c1c9bdd995960821b6064820152608401610672565b610c1e81611687565b50565b60606000610c2e83610e1d565b905060008167ffffffffffffffff811115610c4b57610c4b6120ee565b604051908082528060200260200182016040528015610c74578160200160208202803683370190505b50905060005b82811015610cbb57610c8c8582610910565b828281518110610c9e57610c9e6123a6565b602090810291909101015280610cb38161238b565b915050610c7a565b509392505050565b6000610cce60085490565b8210610d315760405162461bcd60e51b815260206004820152602c60248201527f455243373231456e756d657261626c653a20676c6f62616c20696e646578206f60448201526b7574206f6620626f756e647360a01b6064820152608401610672565b60088281548110610d4457610d446123a6565b90600052602060002001549050919050565b600a546001600160a01b03163314610d805760405162461bcd60e51b81526004016106729061229c565b8051610d9390600c906020840190611e92565b5050565b6000610da1611616565b905090565b6000818152600260205260408120546001600160a01b0316806106425760405162461bcd60e51b815260206004820152602960248201527f4552433732313a206f776e657220717565727920666f72206e6f6e657869737460448201526832b73a103a37b5b2b760b91b6064820152608401610672565b60006001600160a01b038216610e885760405162461bcd60e51b815260206004820152602a60248201527f4552433732313a2062616c616e636520717565727920666f7220746865207a65604482015269726f206164647265737360b01b6064820152608401610672565b506001600160a01b031660009081526003602052604090205490565b600a546001600160a01b03163314610ece5760405162461bcd60e51b81526004016106729061229c565b610ed8600061172e565b565b600a546001600160a01b03163314610f045760405162461bcd60e51b81526004016106729061229c565b6000610f0e611616565b90506064610f1c8383612373565b1115610f555760405162461bcd60e51b8152602060048201526008602482015267115e18d95959195960c21b6044820152606401610672565b60005b828110156108c657610f6933611621565b80610f738161238b565b915050610f58565b600a546001600160a01b03163314610fa55760405162461bcd60e51b81526004016106729061229c565b4780610fb057600080fd5b610c1e73c7da82d146aa66ce6df39142e9fb963df2acc39247611780565b60606001805461069d906122d1565b6001600160a01b0382163314156110365760405162461bcd60e51b815260206004820152601960248201527f4552433732313a20617070726f766520746f2063616c6c6572000000000000006044820152606401610672565b3360008181526005602090815260408083206001600160a01b03871680855290835292819020805460ff191686151590811790915590519081529192917f17307eab39ab6107e8899845ad3d59bd9653f200f220920489ca2b5937696c31910160405180910390a35050565b6110ac3383611368565b6110c85760405162461bcd60e51b81526004016106729061230c565b610b8684848484611816565b6000818152600260205260409020546060906001600160a01b03166111535760405162461bcd60e51b815260206004820152602f60248201527f4552433732314d657461646174613a2055524920717565727920666f72206e6f60448201526e3732bc34b9ba32b73a103a37b5b2b760891b6064820152608401610672565b600061115d611849565b9050600081511161117d57604051806020016040528060008152506111a8565b8061118784611858565b6040516020016111989291906123bc565b6040516020818303038152906040525b9392505050565b600c80546111bc906122d1565b80601f01602080910402602001604051908101604052809291908181526020018280546111e8906122d1565b80156112355780601f1061120a57610100808354040283529160200191611235565b820191906000526020600020905b81548152906001019060200180831161121857829003601f168201915b505050505081565b600a546001600160a01b031633146112675760405162461bcd60e51b81526004016106729061229c565b6001600160a01b0381166112cc5760405162461bcd60e51b815260206004820152602660248201527f4f776e61626c653a206e6577206f776e657220697320746865207a65726f206160448201526564647265737360d01b6064820152608401610672565b610c1e8161172e565b60006001600160e01b0319821663780e9d6360e01b1480610642575061064282611956565b600081815260046020526040902080546001600160a01b0319166001600160a01b038416908117909155819061132f82610da6565b6001600160a01b03167f8c5be1e5ebec7d5bd14f71427d1e84f3dd0314c0f7b2291e5b200ac8c7c3b92560405160405180910390a45050565b6000818152600260205260408120546001600160a01b03166113e15760405162461bcd60e51b815260206004820152602c60248201527f4552433732313a206f70657261746f7220717565727920666f72206e6f6e657860448201526b34b9ba32b73a103a37b5b2b760a11b6064820152608401610672565b60006113ec83610da6565b9050806001600160a01b0316846001600160a01b031614806114275750836001600160a01b031661141c84610720565b6001600160a01b0316145b8061145757506001600160a01b0380821660009081526005602090815260408083209388168352929052205460ff165b949350505050565b826001600160a01b031661147282610da6565b6001600160a01b0316146114da5760405162461bcd60e51b815260206004820152602960248201527f4552433732313a207472616e73666572206f6620746f6b656e2074686174206960448201526839903737ba1037bbb760b91b6064820152608401610672565b6001600160a01b03821661153c5760405162461bcd60e51b8152602060048201526024808201527f4552433732313a207472616e7366657220746f20746865207a65726f206164646044820152637265737360e01b6064820152608401610672565b6115478383836119a6565b6115526000826112fa565b6001600160a01b038316600090815260036020526040812080546001929061157b9084906123fb565b90915550506001600160a01b03821660009081526003602052604081208054600192906115a9908490612373565b909155505060008181526002602052604080822080546001600160a01b0319166001600160a01b0386811691821790925591518493918716917fddf252ad1be2c89b69c2b068fc378daa952ba7f163c4a11628f55a4df523b3ef91a4505050565b60006111a88284612412565b6000610da1600b5490565b600061162b611616565b905061163b600b80546001019055565b61164f8261164a836001612373565b6119b1565b61165a816001612373565b6040517f7e03ce21e5e5f3325fe1aad377e7be64024730acb11945f08a3d7c010379c10e90600090a25050565b600061169282610da6565b90506116a0816000846119a6565b6116ab6000836112fa565b6001600160a01b03811660009081526003602052604081208054600192906116d49084906123fb565b909155505060008281526002602052604080822080546001600160a01b0319169055518391906001600160a01b038416907fddf252ad1be2c89b69c2b068fc378daa952ba7f163c4a11628f55a4df523b3ef908390a45050565b600a80546001600160a01b038381166001600160a01b0319831681179093556040519116919082907f8be0079c531659141344cd1fd0a4f28419497f9722a3daafe3b4186f6b6457e090600090a35050565b6000826001600160a01b03168260405160006040518083038185875af1925050503d80600081146117cd576040519150601f19603f3d011682016040523d82523d6000602084013e6117d2565b606091505b50509050806108c65760405162461bcd60e51b815260206004820152601060248201526f2a3930b739b332b9103330b4b632b21760811b6044820152606401610672565b61182184848461145f565b61182d848484846119cb565b610b865760405162461bcd60e51b815260040161067290612431565b6060600c805461069d906122d1565b60608161187c5750506040805180820190915260018152600360fc1b602082015290565b8160005b81156118a657806118908161238b565b915061189f9050600a83612499565b9150611880565b60008167ffffffffffffffff8111156118c1576118c16120ee565b6040519080825280601f01601f1916602001820160405280156118eb576020820181803683370190505b5090505b8415611457576119006001836123fb565b915061190d600a866124ad565b611918906030612373565b60f81b81838151811061192d5761192d6123a6565b60200101906001600160f81b031916908160001a90535061194f600a86612499565b94506118ef565b60006001600160e01b031982166380ac58cd60e01b148061198757506001600160e01b03198216635b5e139f60e01b145b8061064257506301ffc9a760e01b6001600160e01b0319831614610642565b6108c6838383611ac9565b610d93828260405180602001604052806000815250611b81565b60006001600160a01b0384163b15611abe57604051630a85bd0160e11b81526001600160a01b0385169063150b7a0290611a0f9033908990889088906004016124c1565b6020604051808303816000875af1925050508015611a4a575060408051601f3d908101601f19168201909252611a47918101906124fe565b60015b611aa4573d808015611a78576040519150601f19603f3d011682016040523d82523d6000602084013e611a7d565b606091505b508051611a9c5760405162461bcd60e51b815260040161067290612431565b805181602001fd5b6001600160e01b031916630a85bd0160e11b149050611457565b506001949350505050565b6001600160a01b038316611b2457611b1f81600880546000838152600960205260408120829055600182018355919091527ff3f7a9fe364faab93b216da50a3214154f22a0a2b415b23a84c8169e8b636ee30155565b611b47565b816001600160a01b0316836001600160a01b031614611b4757611b478382611bb4565b6001600160a01b038216611b5e576108c681611c51565b826001600160a01b0316826001600160a01b0316146108c6576108c68282611d00565b611b8b8383611d44565b611b9860008484846119cb565b6108c65760405162461bcd60e51b815260040161067290612431565b60006001611bc184610e1d565b611bcb91906123fb565b600083815260076020526040902054909150808214611c1e576001600160a01b03841660009081526006602090815260408083208584528252808320548484528184208190558352600790915290208190555b5060009182526007602090815260408084208490556001600160a01b039094168352600681528383209183525290812055565b600854600090611c63906001906123fb565b60008381526009602052604081205460088054939450909284908110611c8b57611c8b6123a6565b906000526020600020015490508060088381548110611cac57611cac6123a6565b6000918252602080832090910192909255828152600990915260408082208490558582528120556008805480611ce457611ce461251b565b6001900381819060005260206000200160009055905550505050565b6000611d0b83610e1d565b6001600160a01b039093166000908152600660209081526040808320868452825280832085905593825260079052919091209190915550565b6001600160a01b038216611d9a5760405162461bcd60e51b815260206004820181905260248201527f4552433732313a206d696e7420746f20746865207a65726f20616464726573736044820152606401610672565b6000818152600260205260409020546001600160a01b031615611dff5760405162461bcd60e51b815260206004820152601c60248201527f4552433732313a20746f6b656e20616c7265616479206d696e746564000000006044820152606401610672565b611e0b600083836119a6565b6001600160a01b0382166000908152600360205260408120805460019290611e34908490612373565b909155505060008181526002602052604080822080546001600160a01b0319166001600160a01b03861690811790915590518392907fddf252ad1be2c89b69c2b068fc378daa952ba7f163c4a11628f55a4df523b3ef908290a45050565b828054611e9e906122d1565b90600052602060002090601f016020900481019282611ec05760008555611f06565b82601f10611ed957805160ff1916838001178555611f06565b82800160010185558215611f06579182015b82811115611f06578251825591602001919060010190611eeb565b50611f12929150611f16565b5090565b5b80821115611f125760008155600101611f17565b6001600160e01b031981168114610c1e57600080fd5b600060208284031215611f5357600080fd5b81356111a881611f2b565b80358015158114611f6e57600080fd5b919050565b600060208284031215611f8557600080fd5b6111a882611f5e565b60005b83811015611fa9578181015183820152602001611f91565b83811115610b865750506000910152565b60008151808452611fd2816020860160208601611f8e565b601f01601f19169290920160200192915050565b6020815260006111a86020830184611fba565b60006020828403121561200b57600080fd5b5035919050565b80356001600160a01b0381168114611f6e57600080fd5b6000806040838503121561203c57600080fd5b61204583612012565b946020939093013593505050565b60008060006060848603121561206857600080fd5b61207184612012565b925061207f60208501612012565b9150604084013590509250925092565b6000602082840312156120a157600080fd5b6111a882612012565b6020808252825182820181905260009190848201906040850190845b818110156120e2578351835292840192918401916001016120c6565b50909695505050505050565b634e487b7160e01b600052604160045260246000fd5b600067ffffffffffffffff8084111561211f5761211f6120ee565b604051601f8501601f19908116603f01168101908282118183101715612147576121476120ee565b8160405280935085815286868601111561216057600080fd5b858560208301376000602087830101525050509392505050565b60006020828403121561218c57600080fd5b813567ffffffffffffffff8111156121a357600080fd5b8201601f810184136121b457600080fd5b61145784823560208401612104565b600080604083850312156121d657600080fd5b6121df83612012565b91506121ed60208401611f5e565b90509250929050565b6000806000806080858703121561220c57600080fd5b61221585612012565b935061222360208601612012565b925060408501359150606085013567ffffffffffffffff81111561224657600080fd5b8501601f8101871361225757600080fd5b61226687823560208401612104565b91505092959194509250565b6000806040838503121561228557600080fd5b61228e83612012565b91506121ed60208401612012565b6020808252818101527f4f776e61626c653a2063616c6c6572206973206e6f7420746865206f776e6572604082015260600190565b600181811c908216806122e557607f821691505b6020821081141561230657634e487b7160e01b600052602260045260246000fd5b50919050565b60208082526031908201527f4552433732313a207472616e736665722063616c6c6572206973206e6f74206f6040820152701ddb995c881b9bdc88185c1c1c9bdd9959607a1b606082015260800190565b634e487b7160e01b600052601160045260246000fd5b600082198211156123865761238661235d565b500190565b600060001982141561239f5761239f61235d565b5060010190565b634e487b7160e01b600052603260045260246000fd5b600083516123ce818460208801611f8e565b8351908301906123e2818360208801611f8e565b64173539b7b760d91b9101908152600501949350505050565b60008282101561240d5761240d61235d565b500390565b600081600019048311821515161561242c5761242c61235d565b500290565b60208082526032908201527f4552433732313a207472616e7366657220746f206e6f6e20455243373231526560408201527131b2b4bb32b91034b6b83632b6b2b73a32b960711b606082015260800190565b634e487b7160e01b600052601260045260246000fd5b6000826124a8576124a8612483565b500490565b6000826124bc576124bc612483565b500690565b6001600160a01b03858116825284166020820152604081018390526080606082018190526000906124f490830184611fba565b9695505050505050565b60006020828403121561251057600080fd5b81516111a881611f2b565b634e487b7160e01b600052603160045260246000fdfea264697066735822122000ed6ce8c8288f0fbe6a97ff9f77b26c245509c059d1769d8aa51e69f62efa6164736f6c634300080a00334f776e61626c653a2063616c6c6572206973206e6f7420746865206f776e6572",
  "immutableReferences": {},
  "source": "// SPDX-License-Identifier: MIT\r\npragma solidity ^0.8.0;\r\n\r\nimport \"./ERC721.sol\";\r\nimport \"./ERC721Enumerable.sol\";\r\nimport \"./ERC721Burnable.sol\";\r\nimport \"./Ownable.sol\";\r\nimport \"./SafeMath.sol\";\r\nimport \"./Counters.sol\";\r\n\r\n\r\ncontract CryptoKittenNFT is ERC721Enumerable, Ownable, ERC721Burnable {\r\n    using SafeMath for uint256;\r\n    using Counters for Counters.Counter;\r\n\r\n    Counters.Counter private _tokenIdTracker;\r\n\r\n    uint256 public constant MAX_ELEMENTS = 10000;\r\n    uint256 public constant PRICE = 11 * 10**15;\r\n    uint256 public constant MAX_BY_MINT = 20;\r\n    address public constant creatorAddress = 0xC7dA82d146Aa66cE6Df39142e9fb963Df2acC392;\r\n    // address public constant devAddress = 0xcBCc84766F2950CF867f42D766c43fB2D2Ba3256;\r\n    string public baseTokenURI;\r\n    bool private _pause;\r\n\r\n    event JoinFace(uint256 indexed id);\r\n\r\n    constructor(string memory baseURI) ERC721(\"CryptoKittenNFT\", \"CKN\") {\r\n        setBaseURI(baseURI);\r\n        pause(false);\r\n    }\r\n\r\n    modifier saleIsOpen {\r\n        require(_totalSupply() <= MAX_ELEMENTS, \"Sale end\");\r\n        if (_msgSender() != owner()) {\r\n            require(!_pause, \"Pausable: paused\");\r\n        }\r\n        _;\r\n    }\r\n    function _totalSupply() internal view returns (uint) {\r\n        return _tokenIdTracker.current();\r\n    }\r\n\r\n    function pauseState()external view returns(bool) {\r\n        return _pause;\r\n    }\r\n    // function tokenURI(uint256 tokenId) public view virtual override returns (string memory) {\r\n    //     require(_exists(tokenId), \"ERC721Metadata: URI query for nonexistent token\");\r\n\r\n    //     string memory baseURI = _baseURI();\r\n    //     return bytes(baseURI).length > 0 ? string(abi.encodePacked(baseURI, tokenId.toString(),\".json\")) : \"\";\r\n    // }\r\n\r\n\r\n \r\n\r\n    function totalMint() external view returns (uint256) {\r\n        return _totalSupply();\r\n    }\r\n    function mint(address _to, uint256 _count) public payable saleIsOpen {\r\n        uint256 total = _totalSupply();\r\n        require(total + _count <= MAX_ELEMENTS, \"Max limit\");\r\n        require(total <= MAX_ELEMENTS, \"Sale end\");\r\n        require(_count <= MAX_BY_MINT, \"Exceeds number\");\r\n        require(msg.value >= price(_count), \"Value below price\");\r\n        for (uint256 i = 0; i < _count; i++) {\r\n            _mintAnElement(_to);\r\n        }\r\n    }\r\n    function _mintAnElement(address _to) private {\r\n        uint id = _totalSupply();\r\n        _tokenIdTracker.increment();\r\n        _safeMint(_to, id + 1);\r\n        emit JoinFace(id + 1);\r\n    }\r\n    function price(uint256 _count) public pure returns (uint256) {\r\n        return PRICE.mul(_count);\r\n    }\r\n    function _baseURI() internal view virtual override returns (string memory) {\r\n        return baseTokenURI;\r\n    }\r\n    function setBaseURI(string memory baseURI) public onlyOwner {\r\n        baseTokenURI = baseURI;\r\n    }\r\n    function walletOfOwner(address _owner) external view returns (uint256[] memory) {\r\n        uint256 tokenCount = balanceOf(_owner);\r\n        uint256[] memory tokensId = new uint256[](tokenCount);\r\n        for (uint256 i = 0; i < tokenCount; i++) {\r\n            tokensId[i] = tokenOfOwnerByIndex(_owner, i);\r\n        }\r\n        return tokensId;\r\n    }    \r\n    function pause(bool val) public onlyOwner {\r\n        _pause = val;\r\n    }\r\n    function withdrawAll() public payable onlyOwner {\r\n        uint256 balance = address(this).balance;\r\n        require(balance > 0);\r\n        // _widthdraw(devAddress, balance.mul(25).div(100));\r\n        _widthdraw(creatorAddress, address(this).balance);\r\n    }\r\n    function _widthdraw(address _address, uint256 _amount) private {\r\n        (bool success, ) = _address.call{value: _amount}(\"\");\r\n        require(success, \"Transfer failed.\");\r\n    }\r\n    function _beforeTokenTransfer(\r\n        address from,\r\n        address to,\r\n        uint256 tokenId\r\n    ) internal virtual override(ERC721, ERC721Enumerable) {\r\n        super._beforeTokenTransfer(from, to, tokenId);\r\n    }\r\n    function supportsInterface(bytes4 interfaceId) public view virtual override(ERC721, ERC721Enumerable) returns (bool) {\r\n        return super.supportsInterface(interfaceId);\r\n    }\r\n\r\n    function reserve(uint256 _count) public onlyOwner {\r\n        uint256 total = _totalSupply();\r\n        require(total + _count <= 100, \"Exceeded\");\r\n        for (uint256 i = 0; i < _count; i++) {\r\n            _mintAnElement(_msgSender());\r\n        }\r\n    }\r\n}",
  "sourcePath": "C:\\Users\\Administrator\\Desktop\\SmartContract\\contracts\\CryptoKittenNFT.sol",
  "compiler": {
    "name": "solc",
    "version": "0.8.10+commit.fc410830.Emscripten.clang"
  },
  "schemaVersion": "3.4.3",
  "updatedAt": "2021-12-02T23:40:30.907Z",
  "networkType": "ethereum",
  "devdoc": {
    "kind": "dev",
    "methods": {
      "approve(address,uint256)": {
        "details": "See {IERC721-approve}."
      },
      "balanceOf(address)": {
        "details": "See {IERC721-balanceOf}."
      },
      "burn(uint256)": {
        "details": "Burns `tokenId`. See {ERC721-_burn}. Requirements: - The caller must own `tokenId` or be an approved operator."
      },
      "getApproved(uint256)": {
        "details": "See {IERC721-getApproved}."
      },
      "isApprovedForAll(address,address)": {
        "details": "See {IERC721-isApprovedForAll}."
      },
      "name()": {
        "details": "See {IERC721Metadata-name}."
      },
      "owner()": {
        "details": "Returns the address of the current owner."
      },
      "ownerOf(uint256)": {
        "details": "See {IERC721-ownerOf}."
      },
      "renounceOwnership()": {
        "details": "Leaves the contract without owner. It will not be possible to call `onlyOwner` functions anymore. Can only be called by the current owner. NOTE: Renouncing ownership will leave the contract without an owner, thereby removing any functionality that is only available to the owner."
      },
      "safeTransferFrom(address,address,uint256)": {
        "details": "See {IERC721-safeTransferFrom}."
      },
      "safeTransferFrom(address,address,uint256,bytes)": {
        "details": "See {IERC721-safeTransferFrom}."
      },
      "setApprovalForAll(address,bool)": {
        "details": "See {IERC721-setApprovalForAll}."
      },
      "symbol()": {
        "details": "See {IERC721Metadata-symbol}."
      },
      "tokenByIndex(uint256)": {
        "details": "See {IERC721Enumerable-tokenByIndex}."
      },
      "tokenOfOwnerByIndex(address,uint256)": {
        "details": "See {IERC721Enumerable-tokenOfOwnerByIndex}."
      },
      "tokenURI(uint256)": {
        "details": "See {IERC721Metadata-tokenURI}."
      },
      "totalSupply()": {
        "details": "See {IERC721Enumerable-totalSupply}."
      },
      "transferFrom(address,address,uint256)": {
        "details": "See {IERC721-transferFrom}."
      },
      "transferOwnership(address)": {
        "details": "Transfers ownership of the contract to a new account (`newOwner`). Can only be called by the current owner."
      }
    },
    "version": 1
  },
  "userdoc": {
    "kind": "user",
    "methods": {},
    "version": 1
  }
}