{
  "contractName": "DafeisNFT",
  "abi": [
    {
      "inputs": [
        {
          "internalType": "string",
          "name": "baseURI",
          "type": "string"
        }
      ],
      "stateMutability": "nonpayable",
      "type": "constructor"
    },
    {
      "anonymous": false,
      "inputs": [
        {
          "indexed": true,
          "internalType": "address",
          "name": "owner",
          "type": "address"
        },
        {
          "indexed": true,
          "internalType": "address",
          "name": "approved",
          "type": "address"
        },
        {
          "indexed": true,
          "internalType": "uint256",
          "name": "tokenId",
          "type": "uint256"
        }
      ],
      "name": "Approval",
      "type": "event"
    },
    {
      "anonymous": false,
      "inputs": [
        {
          "indexed": true,
          "internalType": "address",
          "name": "owner",
          "type": "address"
        },
        {
          "indexed": true,
          "internalType": "address",
          "name": "operator",
          "type": "address"
        },
        {
          "indexed": false,
          "internalType": "bool",
          "name": "approved",
          "type": "bool"
        }
      ],
      "name": "ApprovalForAll",
      "type": "event"
    },
    {
      "anonymous": false,
      "inputs": [
        {
          "indexed": true,
          "internalType": "uint256",
          "name": "id",
          "type": "uint256"
        }
      ],
      "name": "JoinFace",
      "type": "event"
    },
    {
      "anonymous": false,
      "inputs": [
        {
          "indexed": true,
          "internalType": "address",
          "name": "previousOwner",
          "type": "address"
        },
        {
          "indexed": true,
          "internalType": "address",
          "name": "newOwner",
          "type": "address"
        }
      ],
      "name": "OwnershipTransferred",
      "type": "event"
    },
    {
      "anonymous": false,
      "inputs": [
        {
          "indexed": true,
          "internalType": "address",
          "name": "from",
          "type": "address"
        },
        {
          "indexed": true,
          "internalType": "address",
          "name": "to",
          "type": "address"
        },
        {
          "indexed": true,
          "internalType": "uint256",
          "name": "tokenId",
          "type": "uint256"
        }
      ],
      "name": "Transfer",
      "type": "event"
    },
    {
      "inputs": [],
      "name": "MAX_BY_MINT",
      "outputs": [
        {
          "internalType": "uint256",
          "name": "",
          "type": "uint256"
        }
      ],
      "stateMutability": "view",
      "type": "function"
    },
    {
      "inputs": [],
      "name": "MAX_ELEMENTS",
      "outputs": [
        {
          "internalType": "uint256",
          "name": "",
          "type": "uint256"
        }
      ],
      "stateMutability": "view",
      "type": "function"
    },
    {
      "inputs": [],
      "name": "PRICE",
      "outputs": [
        {
          "internalType": "uint256",
          "name": "",
          "type": "uint256"
        }
      ],
      "stateMutability": "view",
      "type": "function"
    },
    {
      "inputs": [
        {
          "internalType": "address",
          "name": "to",
          "type": "address"
        },
        {
          "internalType": "uint256",
          "name": "tokenId",
          "type": "uint256"
        }
      ],
      "name": "approve",
      "outputs": [],
      "stateMutability": "nonpayable",
      "type": "function"
    },
    {
      "inputs": [
        {
          "internalType": "address",
          "name": "owner",
          "type": "address"
        }
      ],
      "name": "balanceOf",
      "outputs": [
        {
          "internalType": "uint256",
          "name": "",
          "type": "uint256"
        }
      ],
      "stateMutability": "view",
      "type": "function"
    },
    {
      "inputs": [],
      "name": "baseTokenURI",
      "outputs": [
        {
          "internalType": "string",
          "name": "",
          "type": "string"
        }
      ],
      "stateMutability": "view",
      "type": "function"
    },
    {
      "inputs": [
        {
          "internalType": "uint256",
          "name": "tokenId",
          "type": "uint256"
        }
      ],
      "name": "burn",
      "outputs": [],
      "stateMutability": "nonpayable",
      "type": "function"
    },
    {
      "inputs": [],
      "name": "creatorAddress",
      "outputs": [
        {
          "internalType": "address",
          "name": "",
          "type": "address"
        }
      ],
      "stateMutability": "view",
      "type": "function"
    },
    {
      "inputs": [
        {
          "internalType": "uint256",
          "name": "tokenId",
          "type": "uint256"
        }
      ],
      "name": "getApproved",
      "outputs": [
        {
          "internalType": "address",
          "name": "",
          "type": "address"
        }
      ],
      "stateMutability": "view",
      "type": "function"
    },
    {
      "inputs": [
        {
          "internalType": "address",
          "name": "owner",
          "type": "address"
        },
        {
          "internalType": "address",
          "name": "operator",
          "type": "address"
        }
      ],
      "name": "isApprovedForAll",
      "outputs": [
        {
          "internalType": "bool",
          "name": "",
          "type": "bool"
        }
      ],
      "stateMutability": "view",
      "type": "function"
    },
    {
      "inputs": [],
      "name": "name",
      "outputs": [
        {
          "internalType": "string",
          "name": "",
          "type": "string"
        }
      ],
      "stateMutability": "view",
      "type": "function"
    },
    {
      "inputs": [],
      "name": "owner",
      "outputs": [
        {
          "internalType": "address",
          "name": "",
          "type": "address"
        }
      ],
      "stateMutability": "view",
      "type": "function"
    },
    {
      "inputs": [
        {
          "internalType": "uint256",
          "name": "tokenId",
          "type": "uint256"
        }
      ],
      "name": "ownerOf",
      "outputs": [
        {
          "internalType": "address",
          "name": "",
          "type": "address"
        }
      ],
      "stateMutability": "view",
      "type": "function"
    },
    {
      "inputs": [],
      "name": "renounceOwnership",
      "outputs": [],
      "stateMutability": "nonpayable",
      "type": "function"
    },
    {
      "inputs": [
        {
          "internalType": "address",
          "name": "from",
          "type": "address"
        },
        {
          "internalType": "address",
          "name": "to",
          "type": "address"
        },
        {
          "internalType": "uint256",
          "name": "tokenId",
          "type": "uint256"
        }
      ],
      "name": "safeTransferFrom",
      "outputs": [],
      "stateMutability": "nonpayable",
      "type": "function"
    },
    {
      "inputs": [
        {
          "internalType": "address",
          "name": "from",
          "type": "address"
        },
        {
          "internalType": "address",
          "name": "to",
          "type": "address"
        },
        {
          "internalType": "uint256",
          "name": "tokenId",
          "type": "uint256"
        },
        {
          "internalType": "bytes",
          "name": "_data",
          "type": "bytes"
        }
      ],
      "name": "safeTransferFrom",
      "outputs": [],
      "stateMutability": "nonpayable",
      "type": "function"
    },
    {
      "inputs": [
        {
          "internalType": "address",
          "name": "operator",
          "type": "address"
        },
        {
          "internalType": "bool",
          "name": "approved",
          "type": "bool"
        }
      ],
      "name": "setApprovalForAll",
      "outputs": [],
      "stateMutability": "nonpayable",
      "type": "function"
    },
    {
      "inputs": [],
      "name": "symbol",
      "outputs": [
        {
          "internalType": "string",
          "name": "",
          "type": "string"
        }
      ],
      "stateMutability": "view",
      "type": "function"
    },
    {
      "inputs": [
        {
          "internalType": "uint256",
          "name": "index",
          "type": "uint256"
        }
      ],
      "name": "tokenByIndex",
      "outputs": [
        {
          "internalType": "uint256",
          "name": "",
          "type": "uint256"
        }
      ],
      "stateMutability": "view",
      "type": "function"
    },
    {
      "inputs": [
        {
          "internalType": "address",
          "name": "owner",
          "type": "address"
        },
        {
          "internalType": "uint256",
          "name": "index",
          "type": "uint256"
        }
      ],
      "name": "tokenOfOwnerByIndex",
      "outputs": [
        {
          "internalType": "uint256",
          "name": "",
          "type": "uint256"
        }
      ],
      "stateMutability": "view",
      "type": "function"
    },
    {
      "inputs": [],
      "name": "totalSupply",
      "outputs": [
        {
          "internalType": "uint256",
          "name": "",
          "type": "uint256"
        }
      ],
      "stateMutability": "view",
      "type": "function"
    },
    {
      "inputs": [
        {
          "internalType": "address",
          "name": "from",
          "type": "address"
        },
        {
          "internalType": "address",
          "name": "to",
          "type": "address"
        },
        {
          "internalType": "uint256",
          "name": "tokenId",
          "type": "uint256"
        }
      ],
      "name": "transferFrom",
      "outputs": [],
      "stateMutability": "nonpayable",
      "type": "function"
    },
    {
      "inputs": [
        {
          "internalType": "address",
          "name": "newOwner",
          "type": "address"
        }
      ],
      "name": "transferOwnership",
      "outputs": [],
      "stateMutability": "nonpayable",
      "type": "function"
    },
    {
      "inputs": [
        {
          "internalType": "uint256",
          "name": "tokenId",
          "type": "uint256"
        }
      ],
      "name": "tokenURI",
      "outputs": [
        {
          "internalType": "string",
          "name": "",
          "type": "string"
        }
      ],
      "stateMutability": "view",
      "type": "function"
    },
    {
      "inputs": [],
      "name": "totalMint",
      "outputs": [
        {
          "internalType": "uint256",
          "name": "",
          "type": "uint256"
        }
      ],
      "stateMutability": "view",
      "type": "function"
    },
    {
      "inputs": [
        {
          "internalType": "address",
          "name": "_to",
          "type": "address"
        },
        {
          "internalType": "uint256",
          "name": "_count",
          "type": "uint256"
        }
      ],
      "name": "mint",
      "outputs": [],
      "stateMutability": "payable",
      "type": "function"
    },
    {
      "inputs": [
        {
          "internalType": "uint256",
          "name": "_count",
          "type": "uint256"
        }
      ],
      "name": "price",
      "outputs": [
        {
          "internalType": "uint256",
          "name": "",
          "type": "uint256"
        }
      ],
      "stateMutability": "pure",
      "type": "function"
    },
    {
      "inputs": [
        {
          "internalType": "string",
          "name": "baseURI",
          "type": "string"
        }
      ],
      "name": "setBaseURI",
      "outputs": [],
      "stateMutability": "nonpayable",
      "type": "function"
    },
    {
      "inputs": [
        {
          "internalType": "address",
          "name": "_owner",
          "type": "address"
        }
      ],
      "name": "walletOfOwner",
      "outputs": [
        {
          "internalType": "uint256[]",
          "name": "",
          "type": "uint256[]"
        }
      ],
      "stateMutability": "view",
      "type": "function"
    },
    {
      "inputs": [
        {
          "internalType": "bool",
          "name": "val",
          "type": "bool"
        }
      ],
      "name": "pause",
      "outputs": [],
      "stateMutability": "nonpayable",
      "type": "function"
    },
    {
      "inputs": [],
      "name": "withdrawAll",
      "outputs": [],
      "stateMutability": "payable",
      "type": "function"
    },
    {
      "inputs": [
        {
          "internalType": "bytes4",
          "name": "interfaceId",
          "type": "bytes4"
        }
      ],
      "name": "supportsInterface",
      "outputs": [
        {
          "internalType": "bool",
          "name": "",
          "type": "bool"
        }
      ],
      "stateMutability": "view",
      "type": "function"
    },
    {
      "inputs": [
        {
          "internalType": "uint256",
          "name": "_count",
          "type": "uint256"
        }
      ],
      "name": "reserve",
      "outputs": [],
      "stateMutability": "nonpayable",
      "type": "function"
    }
  ],
  "bytecode": "0x60806040523480156200001157600080fd5b50604051620029d2380380620029d28339810160408190526200003491620002a9565b6040805180820182526009815268111851995a5cd3919560ba1b60208083019182528351808501909452600384526222232760e91b9084015281519192916200008091600091620001ed565b50805162000096906001906020840190620001ed565b505050620000b3620000ad620000d160201b60201c565b620000d5565b620000be8162000127565b620000ca60016200018f565b50620003c2565b3390565b600a80546001600160a01b038381166001600160a01b0319831681179093556040519116919082907f8be0079c531659141344cd1fd0a4f28419497f9722a3daafe3b4186f6b6457e090600090a35050565b600a546001600160a01b03163314620001765760405162461bcd60e51b81526020600482018190526024820152600080516020620029b283398151915260448201526064015b60405180910390fd5b80516200018b90600c906020840190620001ed565b5050565b600a546001600160a01b03163314620001da5760405162461bcd60e51b81526020600482018190526024820152600080516020620029b283398151915260448201526064016200016d565b600d805460ff1916911515919091179055565b828054620001fb9062000385565b90600052602060002090601f0160209004810192826200021f57600085556200026a565b82601f106200023a57805160ff19168380011785556200026a565b828001600101855582156200026a579182015b828111156200026a5782518255916020019190600101906200024d565b50620002789291506200027c565b5090565b5b808211156200027857600081556001016200027d565b634e487b7160e01b600052604160045260246000fd5b60006020808385031215620002bd57600080fd5b82516001600160401b0380821115620002d557600080fd5b818501915085601f830112620002ea57600080fd5b815181811115620002ff57620002ff62000293565b604051601f8201601f19908116603f011681019083821181831017156200032a576200032a62000293565b8160405282815288868487010111156200034357600080fd5b600093505b8284101562000367578484018601518185018701529285019262000348565b82841115620003795760008684830101525b98975050505050505050565b600181811c908216806200039a57607f821691505b60208210811415620003bc57634e487b7160e01b600052602260045260246000fd5b50919050565b6125e080620003d26000396000f3fe6080604052600436106101ee5760003560e01c806359a7715a1161010d5780638da5cb5b116100a0578063c87b56dd1161006f578063c87b56dd1461054e578063d547cfb71461056e578063e927fc5c14610583578063e985e9c5146105ab578063f2fde38b146105f457600080fd5b80638da5cb5b146104db57806395d89b41146104f9578063a22cb4651461050e578063b88d4fde1461052e57600080fd5b8063819b25ba116100dc578063819b25ba14610483578063853828b6146104a35780638ad5de28146104ab5780638d859f3e146104c057600080fd5b806359a7715a146104195780636352211e1461042e57806370a082311461044e578063715018a61461046e57600080fd5b80632f745c591161018557806342966c681161015457806342966c681461038c578063438b6300146103ac5780634f6ccce7146103d957806355f804b3146103f957600080fd5b80632f745c59146103235780633502a7161461034357806340c10f191461035957806342842e0e1461036c57600080fd5b8063095ea7b3116101c1578063095ea7b3146102a457806318160ddd146102c457806323b872dd146102e357806326a49e371461030357600080fd5b806301ffc9a7146101f357806302329a291461022857806306fdde031461024a578063081812fc1461026c575b600080fd5b3480156101ff57600080fd5b5061021361020e366004611f42565b610614565b60405190151581526020015b60405180910390f35b34801561023457600080fd5b50610248610243366004611f74565b610625565b005b34801561025657600080fd5b5061025f61066b565b60405161021f9190611fe7565b34801561027857600080fd5b5061028c610287366004611ffa565b6106fd565b6040516001600160a01b03909116815260200161021f565b3480156102b057600080fd5b506102486102bf36600461202a565b610792565b3480156102d057600080fd5b506008545b60405190815260200161021f565b3480156102ef57600080fd5b506102486102fe366004612054565b6108a8565b34801561030f57600080fd5b506102d561031e366004611ffa565b6108da565b34801561032f57600080fd5b506102d561033e36600461202a565b6108ed565b34801561034f57600080fd5b506102d561271081565b61024861036736600461202a565b610983565b34801561037857600080fd5b50610248610387366004612054565b610b69565b34801561039857600080fd5b506102486103a7366004611ffa565b610b84565b3480156103b857600080fd5b506103cc6103c7366004612090565b610bfe565b60405161021f91906120ab565b3480156103e557600080fd5b506102d56103f4366004611ffa565b610ca0565b34801561040557600080fd5b5061024861041436600461217b565b610d33565b34801561042557600080fd5b506102d5610d74565b34801561043a57600080fd5b5061028c610449366004611ffa565b610d83565b34801561045a57600080fd5b506102d5610469366004612090565b610dfa565b34801561047a57600080fd5b50610248610e81565b34801561048f57600080fd5b5061024861049e366004611ffa565b610eb7565b610248610f58565b3480156104b757600080fd5b506102d5601481565b3480156104cc57600080fd5b506102d566753d533d96800081565b3480156104e757600080fd5b50600a546001600160a01b031661028c565b34801561050557600080fd5b5061025f610fab565b34801561051a57600080fd5b506102486105293660046121c4565b610fba565b34801561053a57600080fd5b506102486105493660046121f7565b61107f565b34801561055a57600080fd5b5061025f610569366004611ffa565b6110b1565b34801561057a57600080fd5b5061025f611117565b34801561058f57600080fd5b5061028c7349e6c500062631de1d79d773436831d1d1b4ee5e81565b3480156105b757600080fd5b506102136105c6366004612273565b6001600160a01b03918216600090815260056020908152604080832093909416825291909152205460ff1690565b34801561060057600080fd5b5061024861060f366004612090565b6111a5565b600061061f8261123d565b92915050565b600a546001600160a01b031633146106585760405162461bcd60e51b815260040161064f9061229d565b60405180910390fd5b600d805460ff1916911515919091179055565b60606000805461067a906122d2565b80601f01602080910402602001604051908101604052809291908181526020018280546106a6906122d2565b80156106f35780601f106106c8576101008083540402835291602001916106f3565b820191906000526020600020905b8154815290600101906020018083116106d657829003601f168201915b5050505050905090565b6000818152600260205260408120546001600160a01b03166107765760405162461bcd60e51b815260206004820152602c60248201527f4552433732313a20617070726f76656420717565727920666f72206e6f6e657860448201526b34b9ba32b73a103a37b5b2b760a11b606482015260840161064f565b506000908152600460205260409020546001600160a01b031690565b600061079d82610d83565b9050806001600160a01b0316836001600160a01b0316141561080b5760405162461bcd60e51b815260206004820152602160248201527f4552433732313a20617070726f76616c20746f2063757272656e74206f776e656044820152603960f91b606482015260840161064f565b336001600160a01b0382161480610827575061082781336105c6565b6108995760405162461bcd60e51b815260206004820152603860248201527f4552433732313a20617070726f76652063616c6c6572206973206e6f74206f7760448201527f6e6572206e6f7220617070726f76656420666f7220616c6c0000000000000000606482015260840161064f565b6108a38383611262565b505050565b6108b3335b826112d0565b6108cf5760405162461bcd60e51b815260040161064f9061230d565b6108a38383836113c7565b600061061f66753d533d96800083611572565b60006108f883610dfa565b821061095a5760405162461bcd60e51b815260206004820152602b60248201527f455243373231456e756d657261626c653a206f776e657220696e646578206f7560448201526a74206f6620626f756e647360a81b606482015260840161064f565b506001600160a01b03919091166000908152600660209081526040808320938352929052205490565b61271061098e611585565b11156109c75760405162461bcd60e51b815260206004820152600860248201526714d85b1948195b9960c21b604482015260640161064f565b600a546001600160a01b03163314610a1f57600d5460ff1615610a1f5760405162461bcd60e51b815260206004820152601060248201526f14185d5cd8589b194e881c185d5cd95960821b604482015260640161064f565b6000610a29611585565b9050612710610a388383612374565b1115610a725760405162461bcd60e51b815260206004820152600960248201526813585e081b1a5b5a5d60ba1b604482015260640161064f565b612710811115610aaf5760405162461bcd60e51b815260206004820152600860248201526714d85b1948195b9960c21b604482015260640161064f565b6014821115610af15760405162461bcd60e51b815260206004820152600e60248201526d22bc31b2b2b23990373ab6b132b960911b604482015260640161064f565b610afa826108da565b341015610b3d5760405162461bcd60e51b815260206004820152601160248201527056616c75652062656c6f7720707269636560781b604482015260640161064f565b60005b82811015610b6357610b5184611590565b80610b5b8161238c565b915050610b40565b50505050565b6108a38383836040518060200160405280600081525061107f565b610b8d336108ad565b610bf25760405162461bcd60e51b815260206004820152603060248201527f4552433732314275726e61626c653a2063616c6c6572206973206e6f74206f7760448201526f1b995c881b9bdc88185c1c1c9bdd995960821b606482015260840161064f565b610bfb816115f6565b50565b60606000610c0b83610dfa565b905060008167ffffffffffffffff811115610c2857610c286120ef565b604051908082528060200260200182016040528015610c51578160200160208202803683370190505b50905060005b82811015610c9857610c6985826108ed565b828281518110610c7b57610c7b6123a7565b602090810291909101015280610c908161238c565b915050610c57565b509392505050565b6000610cab60085490565b8210610d0e5760405162461bcd60e51b815260206004820152602c60248201527f455243373231456e756d657261626c653a20676c6f62616c20696e646578206f60448201526b7574206f6620626f756e647360a01b606482015260840161064f565b60088281548110610d2157610d216123a7565b90600052602060002001549050919050565b600a546001600160a01b03163314610d5d5760405162461bcd60e51b815260040161064f9061229d565b8051610d7090600c906020840190611e93565b5050565b6000610d7e611585565b905090565b6000818152600260205260408120546001600160a01b03168061061f5760405162461bcd60e51b815260206004820152602960248201527f4552433732313a206f776e657220717565727920666f72206e6f6e657869737460448201526832b73a103a37b5b2b760b91b606482015260840161064f565b60006001600160a01b038216610e655760405162461bcd60e51b815260206004820152602a60248201527f4552433732313a2062616c616e636520717565727920666f7220746865207a65604482015269726f206164647265737360b01b606482015260840161064f565b506001600160a01b031660009081526003602052604090205490565b600a546001600160a01b03163314610eab5760405162461bcd60e51b815260040161064f9061229d565b610eb5600061169d565b565b600a546001600160a01b03163314610ee15760405162461bcd60e51b815260040161064f9061229d565b6000610eeb611585565b90506064610ef98383612374565b1115610f325760405162461bcd60e51b8152602060048201526008602482015267115e18d95959195960c21b604482015260640161064f565b60005b828110156108a357610f4633611590565b80610f508161238c565b915050610f35565b600a546001600160a01b03163314610f825760405162461bcd60e51b815260040161064f9061229d565b4780610f8d57600080fd5b610bfb7349e6c500062631de1d79d773436831d1d1b4ee5e476116ef565b60606001805461067a906122d2565b6001600160a01b0382163314156110135760405162461bcd60e51b815260206004820152601960248201527f4552433732313a20617070726f766520746f2063616c6c657200000000000000604482015260640161064f565b3360008181526005602090815260408083206001600160a01b03871680855290835292819020805460ff191686151590811790915590519081529192917f17307eab39ab6107e8899845ad3d59bd9653f200f220920489ca2b5937696c31910160405180910390a35050565b61108933836112d0565b6110a55760405162461bcd60e51b815260040161064f9061230d565b610b6384848484611785565b6000818152600260205260409020546060906001600160a01b03166110e85760405162461bcd60e51b815260040161064f906123bd565b6110f1826117b8565b604051602001611101919061240c565b6040516020818303038152906040529050919050565b600c8054611124906122d2565b80601f0160208091040260200160405190810160405280929190818152602001828054611150906122d2565b801561119d5780601f106111725761010080835404028352916020019161119d565b820191906000526020600020905b81548152906001019060200180831161118057829003601f168201915b505050505081565b600a546001600160a01b031633146111cf5760405162461bcd60e51b815260040161064f9061229d565b6001600160a01b0381166112345760405162461bcd60e51b815260206004820152602660248201527f4f776e61626c653a206e6577206f776e657220697320746865207a65726f206160448201526564647265737360d01b606482015260840161064f565b610bfb8161169d565b60006001600160e01b0319821663780e9d6360e01b148061061f575061061f8261184a565b600081815260046020526040902080546001600160a01b0319166001600160a01b038416908117909155819061129782610d83565b6001600160a01b03167f8c5be1e5ebec7d5bd14f71427d1e84f3dd0314c0f7b2291e5b200ac8c7c3b92560405160405180910390a45050565b6000818152600260205260408120546001600160a01b03166113495760405162461bcd60e51b815260206004820152602c60248201527f4552433732313a206f70657261746f7220717565727920666f72206e6f6e657860448201526b34b9ba32b73a103a37b5b2b760a11b606482015260840161064f565b600061135483610d83565b9050806001600160a01b0316846001600160a01b0316148061138f5750836001600160a01b0316611384846106fd565b6001600160a01b0316145b806113bf57506001600160a01b0380821660009081526005602090815260408083209388168352929052205460ff165b949350505050565b826001600160a01b03166113da82610d83565b6001600160a01b0316146114425760405162461bcd60e51b815260206004820152602960248201527f4552433732313a207472616e73666572206f6620746f6b656e2074686174206960448201526839903737ba1037bbb760b91b606482015260840161064f565b6001600160a01b0382166114a45760405162461bcd60e51b8152602060048201526024808201527f4552433732313a207472616e7366657220746f20746865207a65726f206164646044820152637265737360e01b606482015260840161064f565b6114af83838361189a565b6114ba600082611262565b6001600160a01b03831660009081526003602052604081208054600192906114e3908490612435565b90915550506001600160a01b0382166000908152600360205260408120805460019290611511908490612374565b909155505060008181526002602052604080822080546001600160a01b0319166001600160a01b0386811691821790925591518493918716917fddf252ad1be2c89b69c2b068fc378daa952ba7f163c4a11628f55a4df523b3ef91a4505050565b600061157e828461244c565b9392505050565b6000610d7e600b5490565b600061159a611585565b90506115aa600b80546001019055565b6115be826115b9836001612374565b6118a5565b6115c9816001612374565b6040517f7e03ce21e5e5f3325fe1aad377e7be64024730acb11945f08a3d7c010379c10e90600090a25050565b600061160182610d83565b905061160f8160008461189a565b61161a600083611262565b6001600160a01b0381166000908152600360205260408120805460019290611643908490612435565b909155505060008281526002602052604080822080546001600160a01b0319169055518391906001600160a01b038416907fddf252ad1be2c89b69c2b068fc378daa952ba7f163c4a11628f55a4df523b3ef908390a45050565b600a80546001600160a01b038381166001600160a01b0319831681179093556040519116919082907f8be0079c531659141344cd1fd0a4f28419497f9722a3daafe3b4186f6b6457e090600090a35050565b6000826001600160a01b03168260405160006040518083038185875af1925050503d806000811461173c576040519150601f19603f3d011682016040523d82523d6000602084013e611741565b606091505b50509050806108a35760405162461bcd60e51b815260206004820152601060248201526f2a3930b739b332b9103330b4b632b21760811b604482015260640161064f565b6117908484846113c7565b61179c848484846118bf565b610b635760405162461bcd60e51b815260040161064f9061246b565b6000818152600260205260409020546060906001600160a01b03166117ef5760405162461bcd60e51b815260040161064f906123bd565b60006117f96119bd565b90506000815111611819576040518060200160405280600081525061157e565b80611823846119cc565b6040516020016118349291906124bd565b6040516020818303038152906040529392505050565b60006001600160e01b031982166380ac58cd60e01b148061187b57506001600160e01b03198216635b5e139f60e01b145b8061061f57506301ffc9a760e01b6001600160e01b031983161461061f565b6108a3838383611aca565b610d70828260405180602001604052806000815250611b82565b60006001600160a01b0384163b156119b257604051630a85bd0160e11b81526001600160a01b0385169063150b7a02906119039033908990889088906004016124fc565b6020604051808303816000875af192505050801561193e575060408051601f3d908101601f1916820190925261193b91810190612539565b60015b611998573d80801561196c576040519150601f19603f3d011682016040523d82523d6000602084013e611971565b606091505b5080516119905760405162461bcd60e51b815260040161064f9061246b565b805181602001fd5b6001600160e01b031916630a85bd0160e11b1490506113bf565b506001949350505050565b6060600c805461067a906122d2565b6060816119f05750506040805180820190915260018152600360fc1b602082015290565b8160005b8115611a1a5780611a048161238c565b9150611a139050600a8361256c565b91506119f4565b60008167ffffffffffffffff811115611a3557611a356120ef565b6040519080825280601f01601f191660200182016040528015611a5f576020820181803683370190505b5090505b84156113bf57611a74600183612435565b9150611a81600a86612580565b611a8c906030612374565b60f81b818381518110611aa157611aa16123a7565b60200101906001600160f81b031916908160001a905350611ac3600a8661256c565b9450611a63565b6001600160a01b038316611b2557611b2081600880546000838152600960205260408120829055600182018355919091527ff3f7a9fe364faab93b216da50a3214154f22a0a2b415b23a84c8169e8b636ee30155565b611b48565b816001600160a01b0316836001600160a01b031614611b4857611b488382611bb5565b6001600160a01b038216611b5f576108a381611c52565b826001600160a01b0316826001600160a01b0316146108a3576108a38282611d01565b611b8c8383611d45565b611b9960008484846118bf565b6108a35760405162461bcd60e51b815260040161064f9061246b565b60006001611bc284610dfa565b611bcc9190612435565b600083815260076020526040902054909150808214611c1f576001600160a01b03841660009081526006602090815260408083208584528252808320548484528184208190558352600790915290208190555b5060009182526007602090815260408084208490556001600160a01b039094168352600681528383209183525290812055565b600854600090611c6490600190612435565b60008381526009602052604081205460088054939450909284908110611c8c57611c8c6123a7565b906000526020600020015490508060088381548110611cad57611cad6123a7565b6000918252602080832090910192909255828152600990915260408082208490558582528120556008805480611ce557611ce5612594565b6001900381819060005260206000200160009055905550505050565b6000611d0c83610dfa565b6001600160a01b039093166000908152600660209081526040808320868452825280832085905593825260079052919091209190915550565b6001600160a01b038216611d9b5760405162461bcd60e51b815260206004820181905260248201527f4552433732313a206d696e7420746f20746865207a65726f2061646472657373604482015260640161064f565b6000818152600260205260409020546001600160a01b031615611e005760405162461bcd60e51b815260206004820152601c60248201527f4552433732313a20746f6b656e20616c7265616479206d696e74656400000000604482015260640161064f565b611e0c6000838361189a565b6001600160a01b0382166000908152600360205260408120805460019290611e35908490612374565b909155505060008181526002602052604080822080546001600160a01b0319166001600160a01b03861690811790915590518392907fddf252ad1be2c89b69c2b068fc378daa952ba7f163c4a11628f55a4df523b3ef908290a45050565b828054611e9f906122d2565b90600052602060002090601f016020900481019282611ec15760008555611f07565b82601f10611eda57805160ff1916838001178555611f07565b82800160010185558215611f07579182015b82811115611f07578251825591602001919060010190611eec565b50611f13929150611f17565b5090565b5b80821115611f135760008155600101611f18565b6001600160e01b031981168114610bfb57600080fd5b600060208284031215611f5457600080fd5b813561157e81611f2c565b80358015158114611f6f57600080fd5b919050565b600060208284031215611f8657600080fd5b61157e82611f5f565b60005b83811015611faa578181015183820152602001611f92565b83811115610b635750506000910152565b60008151808452611fd3816020860160208601611f8f565b601f01601f19169290920160200192915050565b60208152600061157e6020830184611fbb565b60006020828403121561200c57600080fd5b5035919050565b80356001600160a01b0381168114611f6f57600080fd5b6000806040838503121561203d57600080fd5b61204683612013565b946020939093013593505050565b60008060006060848603121561206957600080fd5b61207284612013565b925061208060208501612013565b9150604084013590509250925092565b6000602082840312156120a257600080fd5b61157e82612013565b6020808252825182820181905260009190848201906040850190845b818110156120e3578351835292840192918401916001016120c7565b50909695505050505050565b634e487b7160e01b600052604160045260246000fd5b600067ffffffffffffffff80841115612120576121206120ef565b604051601f8501601f19908116603f01168101908282118183101715612148576121486120ef565b8160405280935085815286868601111561216157600080fd5b858560208301376000602087830101525050509392505050565b60006020828403121561218d57600080fd5b813567ffffffffffffffff8111156121a457600080fd5b8201601f810184136121b557600080fd5b6113bf84823560208401612105565b600080604083850312156121d757600080fd5b6121e083612013565b91506121ee60208401611f5f565b90509250929050565b6000806000806080858703121561220d57600080fd5b61221685612013565b935061222460208601612013565b925060408501359150606085013567ffffffffffffffff81111561224757600080fd5b8501601f8101871361225857600080fd5b61226787823560208401612105565b91505092959194509250565b6000806040838503121561228657600080fd5b61228f83612013565b91506121ee60208401612013565b6020808252818101527f4f776e61626c653a2063616c6c6572206973206e6f7420746865206f776e6572604082015260600190565b600181811c908216806122e657607f821691505b6020821081141561230757634e487b7160e01b600052602260045260246000fd5b50919050565b60208082526031908201527f4552433732313a207472616e736665722063616c6c6572206973206e6f74206f6040820152701ddb995c881b9bdc88185c1c1c9bdd9959607a1b606082015260800190565b634e487b7160e01b600052601160045260246000fd5b600082198211156123875761238761235e565b500190565b60006000198214156123a0576123a061235e565b5060010190565b634e487b7160e01b600052603260045260246000fd5b6020808252602f908201527f4552433732314d657461646174613a2055524920717565727920666f72206e6f60408201526e3732bc34b9ba32b73a103a37b5b2b760891b606082015260800190565b6000825161241e818460208701611f8f565b64173539b7b760d91b920191825250600501919050565b6000828210156124475761244761235e565b500390565b60008160001904831182151516156124665761246661235e565b500290565b60208082526032908201527f4552433732313a207472616e7366657220746f206e6f6e20455243373231526560408201527131b2b4bb32b91034b6b83632b6b2b73a32b960711b606082015260800190565b600083516124cf818460208801611f8f565b8351908301906124e3818360208801611f8f565b64173539b7b760d91b9101908152600501949350505050565b6001600160a01b038581168252841660208201526040810183905260806060820181905260009061252f90830184611fbb565b9695505050505050565b60006020828403121561254b57600080fd5b815161157e81611f2c565b634e487b7160e01b600052601260045260246000fd5b60008261257b5761257b612556565b500490565b60008261258f5761258f612556565b500690565b634e487b7160e01b600052603160045260246000fdfea26469706673582212209e8cc364a2cf9edd81210d22f103ce195e04361f892b777af637c6a9cd9e5a5164736f6c634300080a00334f776e61626c653a2063616c6c6572206973206e6f7420746865206f776e6572",
  "immutableReferences": {},
  "source": "// SPDX-License-Identifier: MIT\r\npragma solidity ^0.8.0;\r\n\r\nimport \"./ERC721.sol\";\r\nimport \"./ERC721Enumerable.sol\";\r\nimport \"./ERC721Burnable.sol\";\r\nimport \"./Ownable.sol\";\r\nimport \"./SafeMath.sol\";\r\nimport \"./Counters.sol\";\r\n\r\ncontract DafeisNFT is ERC721Enumerable, Ownable, ERC721Burnable {\r\n    using SafeMath for uint256;\r\n    using Counters for Counters.Counter;\r\n\r\n    Counters.Counter private _tokenIdTracker;\r\n\r\n    uint256 public constant MAX_ELEMENTS = 10000;\r\n    uint256 public constant PRICE = 33 * 10**15;\r\n    uint256 public constant MAX_BY_MINT = 20;\r\n    address public constant creatorAddress = 0x49E6c500062631dE1d79d773436831D1D1b4eE5e;\r\n    // address public constant devAddress = 0xcBCc84766F2950CF867f42D766c43fB2D2Ba3256;\r\n    string public baseTokenURI;\r\n    bool private _pause;\r\n\r\n    event JoinFace(uint256 indexed id);\r\n\r\n    constructor(string memory baseURI) ERC721(\"DaFeisNFT\", \"DFN\") {\r\n        setBaseURI(baseURI);\r\n        pause(true);\r\n    }\r\n\r\n    modifier saleIsOpen {\r\n        require(_totalSupply() <= MAX_ELEMENTS, \"Sale end\");\r\n        if (_msgSender() != owner()) {\r\n            require(!_pause, \"Pausable: paused\");\r\n        }\r\n        _;\r\n    }\r\n    function _totalSupply() internal view returns (uint) {\r\n        return _tokenIdTracker.current();\r\n    }\r\n\r\n    function tokenURI(uint256 tokenId) public view virtual override returns (string memory) {\r\n        require(_exists(tokenId), \"ERC721Metadata: URI query for nonexistent token\");\r\n        return string(abi.encodePacked(super.tokenURI(tokenId), \".json\"));\r\n    }\r\n\r\n    function totalMint() external view returns (uint256) {\r\n        return _totalSupply();\r\n    }\r\n    function mint(address _to, uint256 _count) public payable saleIsOpen {\r\n        uint256 total = _totalSupply();\r\n        require(total + _count <= MAX_ELEMENTS, \"Max limit\");\r\n        require(total <= MAX_ELEMENTS, \"Sale end\");\r\n        require(_count <= MAX_BY_MINT, \"Exceeds number\");\r\n        require(msg.value >= price(_count), \"Value below price\");\r\n        for (uint256 i = 0; i < _count; i++) {\r\n            _mintAnElement(_to);\r\n        }\r\n    }\r\n    function _mintAnElement(address _to) private {\r\n        uint id = _totalSupply();\r\n        _tokenIdTracker.increment();\r\n        _safeMint(_to, id + 1);\r\n        emit JoinFace(id + 1);\r\n    }\r\n    function price(uint256 _count) public pure returns (uint256) {\r\n        return PRICE.mul(_count);\r\n    }\r\n    function _baseURI() internal view virtual override returns (string memory) {\r\n        return baseTokenURI;\r\n    }\r\n    function setBaseURI(string memory baseURI) public onlyOwner {\r\n        baseTokenURI = baseURI;\r\n    }\r\n    function walletOfOwner(address _owner) external view returns (uint256[] memory) {\r\n        uint256 tokenCount = balanceOf(_owner);\r\n        uint256[] memory tokensId = new uint256[](tokenCount);\r\n        for (uint256 i = 0; i < tokenCount; i++) {\r\n            tokensId[i] = tokenOfOwnerByIndex(_owner, i);\r\n        }\r\n        return tokensId;\r\n    }    \r\n    function pause(bool val) public onlyOwner {\r\n        _pause = val;\r\n    }\r\n    function withdrawAll() public payable onlyOwner {\r\n        uint256 balance = address(this).balance;\r\n        require(balance > 0);\r\n        // _widthdraw(devAddress, balance.mul(25).div(100));\r\n        _widthdraw(creatorAddress, address(this).balance);\r\n    }\r\n    function _widthdraw(address _address, uint256 _amount) private {\r\n        (bool success, ) = _address.call{value: _amount}(\"\");\r\n        require(success, \"Transfer failed.\");\r\n    }\r\n    function _beforeTokenTransfer(\r\n        address from,\r\n        address to,\r\n        uint256 tokenId\r\n    ) internal virtual override(ERC721, ERC721Enumerable) {\r\n        super._beforeTokenTransfer(from, to, tokenId);\r\n    }\r\n    function supportsInterface(bytes4 interfaceId) public view virtual override(ERC721, ERC721Enumerable) returns (bool) {\r\n        return super.supportsInterface(interfaceId);\r\n    }\r\n\r\n    function reserve(uint256 _count) public onlyOwner {\r\n        uint256 total = _totalSupply();\r\n        require(total + _count <= 100, \"Exceeded\");\r\n        for (uint256 i = 0; i < _count; i++) {\r\n            _mintAnElement(_msgSender());\r\n        }\r\n    }\r\n}",
  "sourcePath": "C:\\Users\\Administrator\\Desktop\\SmartContract\\contracts\\CryptoKittenNFT.sol",
  "compiler": {
    "name": "solc",
    "version": "0.8.10+commit.fc410830.Emscripten.clang"
  },
  "schemaVersion": "3.4.3",
  "updatedAt": "2021-12-01T02:45:08.142Z",
  "devdoc": {
    "kind": "dev",
    "methods": {
      "approve(address,uint256)": {
        "details": "See {IERC721-approve}."
      },
      "balanceOf(address)": {
        "details": "See {IERC721-balanceOf}."
      },
      "burn(uint256)": {
        "details": "Burns `tokenId`. See {ERC721-_burn}. Requirements: - The caller must own `tokenId` or be an approved operator."
      },
      "getApproved(uint256)": {
        "details": "See {IERC721-getApproved}."
      },
      "isApprovedForAll(address,address)": {
        "details": "See {IERC721-isApprovedForAll}."
      },
      "name()": {
        "details": "See {IERC721Metadata-name}."
      },
      "owner()": {
        "details": "Returns the address of the current owner."
      },
      "ownerOf(uint256)": {
        "details": "See {IERC721-ownerOf}."
      },
      "renounceOwnership()": {
        "details": "Leaves the contract without owner. It will not be possible to call `onlyOwner` functions anymore. Can only be called by the current owner. NOTE: Renouncing ownership will leave the contract without an owner, thereby removing any functionality that is only available to the owner."
      },
      "safeTransferFrom(address,address,uint256)": {
        "details": "See {IERC721-safeTransferFrom}."
      },
      "safeTransferFrom(address,address,uint256,bytes)": {
        "details": "See {IERC721-safeTransferFrom}."
      },
      "setApprovalForAll(address,bool)": {
        "details": "See {IERC721-setApprovalForAll}."
      },
      "symbol()": {
        "details": "See {IERC721Metadata-symbol}."
      },
      "tokenByIndex(uint256)": {
        "details": "See {IERC721Enumerable-tokenByIndex}."
      },
      "tokenOfOwnerByIndex(address,uint256)": {
        "details": "See {IERC721Enumerable-tokenOfOwnerByIndex}."
      },
      "tokenURI(uint256)": {
        "details": "See {IERC721Metadata-tokenURI}."
      },
      "totalSupply()": {
        "details": "See {IERC721Enumerable-totalSupply}."
      },
      "transferFrom(address,address,uint256)": {
        "details": "See {IERC721-transferFrom}."
      },
      "transferOwnership(address)": {
        "details": "Transfers ownership of the contract to a new account (`newOwner`). Can only be called by the current owner."
      }
    },
    "version": 1
  },
  "userdoc": {
    "kind": "user",
    "methods": {},
    "version": 1
  }
}